{
  "contractName": "Inbox",
  "abi": [
    {
      "constant": true,
      "inputs": [],
      "name": "message",
      "outputs": [
        {
          "internalType": "string",
          "name": "",
          "type": "string"
        }
      ],
      "payable": false,
      "stateMutability": "view",
      "type": "function"
    },
    {
      "constant": false,
      "inputs": [
        {
          "internalType": "string",
          "name": "initialMessage",
          "type": "string"
        }
      ],
      "name": "contructor",
      "outputs": [],
      "payable": false,
      "stateMutability": "nonpayable",
      "type": "function"
    },
    {
      "constant": false,
      "inputs": [
        {
          "internalType": "string",
          "name": "taskName",
          "type": "string"
        }
      ],
      "name": "setMessage",
      "outputs": [],
      "payable": false,
      "stateMutability": "nonpayable",
      "type": "function"
    },
    {
      "constant": true,
      "inputs": [
        {
          "internalType": "uint256",
          "name": "i",
          "type": "uint256"
        }
      ],
      "name": "getMessage",
      "outputs": [
        {
          "internalType": "string",
          "name": "",
          "type": "string"
        }
      ],
      "payable": false,
      "stateMutability": "view",
      "type": "function"
    }
  ],
  "bytecode": "0x608060405234801561001057600080fd5b5061057e806100206000396000f3fe608060405234801561001057600080fd5b506004361061004c5760003560e01c80632e3f93fd14610051578063368b87721461010c57806386f79edb146101c7578063e21f37ce1461026e575b600080fd5b61010a6004803603602081101561006757600080fd5b810190808035906020019064010000000081111561008457600080fd5b82018360208201111561009657600080fd5b803590602001918460018302840111640100000000831117156100b857600080fd5b91908080601f016020809104026020016040519081016040528093929190818152602001838380828437600081840152601f19601f8201169050808301925050505050505091929192905050506102f1565b005b6101c56004803603602081101561012257600080fd5b810190808035906020019064010000000081111561013f57600080fd5b82018360208201111561015157600080fd5b8035906020019184600183028401116401000000008311171561017357600080fd5b91908080601f016020809104026020016040519081016040528093929190818152602001838380828437600081840152601f19601f82011690508083019250505050505050919291929050505061030b565b005b6101f3600480360360208110156101dd57600080fd5b810190808035906020019092919050505061034d565b6040518080602001828103825283818151815260200191508051906020019080838360005b83811015610233578082015181840152602081019050610218565b50505050905090810190601f1680156102605780820380516001836020036101000a031916815260200191505b509250505060405180910390f35b610276610406565b6040518080602001828103825283818151815260200191508051906020019080838360005b838110156102b657808201518184015260208101905061029b565b50505050905090810190601f1680156102e35780820380516001836020036101000a031916815260200191505b509250505060405180910390f35b80600090805190602001906103079291906104a4565b5050565b60018190806001815401808255809150509060018203906000526020600020016000909192909190915090805190602001906103489291906104a4565b505050565b60606001828154811061035c57fe5b906000526020600020018054600181600116156101000203166002900480601f0160208091040260200160405190810160405280929190818152602001828054600181600116156101000203166002900480156103fa5780601f106103cf576101008083540402835291602001916103fa565b820191906000526020600020905b8154815290600101906020018083116103dd57829003601f168201915b50505050509050919050565b60008054600181600116156101000203166002900480601f01602080910402602001604051908101604052809291908181526020018280546001816001161561010002031660029004801561049c5780601f106104715761010080835404028352916020019161049c565b820191906000526020600020905b81548152906001019060200180831161047f57829003601f168201915b505050505081565b828054600181600116156101000203166002900490600052602060002090601f016020900481019282601f106104e557805160ff1916838001178555610513565b82800160010185558215610513579182015b828111156105125782518255916020019190600101906104f7565b5b5090506105209190610524565b5090565b61054691905b8082111561054257600081600090555060010161052a565b5090565b9056fea265627a7a7231582091a420f8fec4ee0dbc47c504589dd171e61aa0f6dbab48b21f6889688bc1003964736f6c63430005100032",
  "source": "pragma solidity >=0.4.22 <0.7.0;\ncontract Inbox {\n    string public message;\n    string[] tasks;\n    function contructor(string memory initialMessage) public {\n        message = initialMessage;\n    }\n    function setMessage(string memory taskName) public {\n        tasks.push(taskName);\n    }\n    function getMessage(uint256 i) public view returns (string memory) {\n        return tasks[i];\n    }\n}\n",
  "sourcePath": "/Users/mckinleyrice/Desktop/Karan/Mckinley Repos/node-restapi-boilerplate/contracts/Inbox.sol",
  "compiler": {
    "name": "solc",
    "version": "0.5.16+commit.9c3226ce.Emscripten.clang"
  },
  "schemaVersion": "3.0.23",
  "updatedAt": "2020-03-04T12:01:06.696Z",
  "networkType": "ethereum",
  "devdoc": {
    "methods": {}
  },
  "userdoc": {
    "methods": {}
  }
}